{
  "_format": "hh-sol-artifact-1",
  "contractName": "Marketplace",
  "sourceName": "contracts/Marketplace.sol",
  "abi": [
    {
      "inputs": [],
      "stateMutability": "nonpayable",
      "type": "constructor"
    },
    {
      "anonymous": false,
      "inputs": [
        {
          "indexed": false,
          "internalType": "address",
          "name": "_bidder",
          "type": "address"
        },
        {
          "indexed": false,
          "internalType": "uint256",
          "name": "_productId",
          "type": "uint256"
        },
        {
          "indexed": false,
          "internalType": "uint256",
          "name": "_amount",
          "type": "uint256"
        }
      ],
      "name": "NewBid",
      "type": "event"
    },
    {
      "anonymous": false,
      "inputs": [
        {
          "indexed": false,
          "internalType": "uint256",
          "name": "_productId",
          "type": "uint256"
        },
        {
          "indexed": false,
          "internalType": "string",
          "name": "_name",
          "type": "string"
        },
        {
          "indexed": false,
          "internalType": "string",
          "name": "_category",
          "type": "string"
        },
        {
          "indexed": false,
          "internalType": "string",
          "name": "_imageLink",
          "type": "string"
        },
        {
          "indexed": false,
          "internalType": "string",
          "name": "_descLink",
          "type": "string"
        },
        {
          "indexed": false,
          "internalType": "uint256",
          "name": "_startPrice",
          "type": "uint256"
        },
        {
          "indexed": false,
          "internalType": "uint256",
          "name": "_productCondition",
          "type": "uint256"
        }
      ],
      "name": "NewProduct",
      "type": "event"
    },
    {
      "inputs": [
        {
          "internalType": "string",
          "name": "_name",
          "type": "string"
        },
        {
          "internalType": "string",
          "name": "_category",
          "type": "string"
        },
        {
          "internalType": "string",
          "name": "_imageLink",
          "type": "string"
        },
        {
          "internalType": "string",
          "name": "_descLink",
          "type": "string"
        },
        {
          "internalType": "uint256",
          "name": "_startPrice",
          "type": "uint256"
        },
        {
          "internalType": "uint256",
          "name": "_productCondition",
          "type": "uint256"
        }
      ],
      "name": "addProduct",
      "outputs": [],
      "stateMutability": "nonpayable",
      "type": "function"
    },
    {
      "inputs": [
        {
          "internalType": "uint256",
          "name": "_productId",
          "type": "uint256"
        },
        {
          "internalType": "uint256",
          "name": "_amount",
          "type": "uint256"
        }
      ],
      "name": "bid",
      "outputs": [
        {
          "internalType": "bool",
          "name": "",
          "type": "bool"
        }
      ],
      "stateMutability": "payable",
      "type": "function"
    },
    {
      "inputs": [
        {
          "internalType": "uint256",
          "name": "_productId",
          "type": "uint256"
        }
      ],
      "name": "closeAuction",
      "outputs": [],
      "stateMutability": "nonpayable",
      "type": "function"
    },
    {
      "inputs": [
        {
          "internalType": "uint256",
          "name": "_productId",
          "type": "uint256"
        }
      ],
      "name": "escrowAddresForProduct",
      "outputs": [
        {
          "internalType": "address",
          "name": "",
          "type": "address"
        }
      ],
      "stateMutability": "view",
      "type": "function"
    },
    {
      "inputs": [
        {
          "internalType": "uint256",
          "name": "_productId",
          "type": "uint256"
        }
      ],
      "name": "escrowInfo",
      "outputs": [
        {
          "internalType": "address",
          "name": "",
          "type": "address"
        },
        {
          "internalType": "address",
          "name": "",
          "type": "address"
        },
        {
          "internalType": "bool",
          "name": "",
          "type": "bool"
        }
      ],
      "stateMutability": "view",
      "type": "function"
    },
    {
      "inputs": [
        {
          "internalType": "uint256",
          "name": "_productId",
          "type": "uint256"
        }
      ],
      "name": "getProduct",
      "outputs": [
        {
          "internalType": "uint256",
          "name": "",
          "type": "uint256"
        },
        {
          "internalType": "string",
          "name": "",
          "type": "string"
        },
        {
          "internalType": "string",
          "name": "",
          "type": "string"
        },
        {
          "internalType": "string",
          "name": "",
          "type": "string"
        },
        {
          "internalType": "string",
          "name": "",
          "type": "string"
        },
        {
          "internalType": "uint256",
          "name": "",
          "type": "uint256"
        },
        {
          "internalType": "enum Marketplace.ProductStatus",
          "name": "",
          "type": "uint8"
        },
        {
          "internalType": "enum Marketplace.ProductCondition",
          "name": "",
          "type": "uint8"
        },
        {
          "internalType": "uint256",
          "name": "",
          "type": "uint256"
        },
        {
          "internalType": "uint256",
          "name": "",
          "type": "uint256"
        }
      ],
      "stateMutability": "view",
      "type": "function"
    },
    {
      "inputs": [
        {
          "internalType": "uint256",
          "name": "_productId",
          "type": "uint256"
        }
      ],
      "name": "highestBidderInfo",
      "outputs": [
        {
          "internalType": "address",
          "name": "",
          "type": "address"
        },
        {
          "internalType": "uint256",
          "name": "",
          "type": "uint256"
        }
      ],
      "stateMutability": "view",
      "type": "function"
    },
    {
      "inputs": [
        {
          "internalType": "uint256",
          "name": "",
          "type": "uint256"
        }
      ],
      "name": "productEscrow",
      "outputs": [
        {
          "internalType": "address",
          "name": "",
          "type": "address"
        }
      ],
      "stateMutability": "view",
      "type": "function"
    },
    {
      "inputs": [
        {
          "internalType": "uint256",
          "name": "",
          "type": "uint256"
        }
      ],
      "name": "productIdInStore",
      "outputs": [
        {
          "internalType": "address",
          "name": "",
          "type": "address"
        }
      ],
      "stateMutability": "view",
      "type": "function"
    },
    {
      "inputs": [],
      "name": "productIndex",
      "outputs": [
        {
          "internalType": "uint256",
          "name": "",
          "type": "uint256"
        }
      ],
      "stateMutability": "view",
      "type": "function"
    },
    {
      "inputs": [
        {
          "internalType": "uint256",
          "name": "_productId",
          "type": "uint256"
        }
      ],
      "name": "refundToBuyer",
      "outputs": [],
      "stateMutability": "nonpayable",
      "type": "function"
    },
    {
      "inputs": [
        {
          "internalType": "uint256",
          "name": "_productId",
          "type": "uint256"
        }
      ],
      "name": "releaseToSeller",
      "outputs": [],
      "stateMutability": "nonpayable",
      "type": "function"
    },
    {
      "inputs": [
        {
          "internalType": "uint256",
          "name": "_productId",
          "type": "uint256"
        }
      ],
      "name": "sendToEscrow",
      "outputs": [],
      "stateMutability": "payable",
      "type": "function"
    },
    {
      "inputs": [
        {
          "internalType": "address",
          "name": "",
          "type": "address"
        },
        {
          "internalType": "uint256",
          "name": "",
          "type": "uint256"
        }
      ],
      "name": "stores",
      "outputs": [
        {
          "internalType": "uint256",
          "name": "id",
          "type": "uint256"
        },
        {
          "internalType": "string",
          "name": "name",
          "type": "string"
        },
        {
          "internalType": "string",
          "name": "category",
          "type": "string"
        },
        {
          "internalType": "string",
          "name": "imageLink",
          "type": "string"
        },
        {
          "internalType": "string",
          "name": "descLink",
          "type": "string"
        },
        {
          "internalType": "uint256",
          "name": "startPrice",
          "type": "uint256"
        },
        {
          "internalType": "address",
          "name": "highestBidder",
          "type": "address"
        },
        {
          "internalType": "uint256",
          "name": "highestBid",
          "type": "uint256"
        },
        {
          "internalType": "uint256",
          "name": "totalBids",
          "type": "uint256"
        },
        {
          "internalType": "enum Marketplace.ProductStatus",
          "name": "status",
          "type": "uint8"
        },
        {
          "internalType": "enum Marketplace.ProductCondition",
          "name": "condition",
          "type": "uint8"
        }
      ],
      "stateMutability": "view",
      "type": "function"
    },
    {
      "inputs": [
        {
          "internalType": "uint256",
          "name": "_productId",
          "type": "uint256"
        }
      ],
      "name": "totalBids",
      "outputs": [
        {
          "internalType": "uint256",
          "name": "",
          "type": "uint256"
        }
      ],
      "stateMutability": "view",
      "type": "function"
    }
  ],
  "bytecode": "0x608060405234801561001057600080fd5b5060008081905550612b71806100276000396000f3fe608060405260043610620000fe5760003560e01c8063835605251162000097578063c0bc03c81162000061578063c0bc03c8146200037a578063c897d5a614620003be578063ce818ea914620003ee578063debe4173146200043357620000fe565b8063835605251462000299578063b4050fc814620002df578063b9db15b4146200030d578063baf2e3ad146200035a57620000fe565b806354121c7411620000d957806354121c7414620001a3578063598647f814620001f157806361655e12146200022757806362bdc885146200025557620000fe565b8063236ed8f3146200010357806328e3d190146200013157806333e233111462000175575b600080fd5b3480156200011057600080fd5b506200012f600480360381019062000129919062001763565b62000477565b005b3480156200013e57600080fd5b506200015d600480360381019062000157919062001763565b6200062b565b6040516200016c9190620017a6565b60405180910390f35b3480156200018257600080fd5b50620001a160048036038101906200019b919062001763565b620006c0565b005b348015620001b057600080fd5b50620001cf6004803603810190620001c9919062001828565b6200076b565b604051620001e89b9a99989796959493929190620019eb565b60405180910390f35b6200020f600480360381019062000209919062001ac8565b62000a4c565b6040516200021e919062001b2c565b60405180910390f35b3480156200023457600080fd5b506200025360048036038101906200024d919062001c9a565b62000d02565b005b3480156200026257600080fd5b506200028160048036038101906200027b919062001763565b62000eed565b60405162000290919062001db2565b60405180910390f35b348015620002a657600080fd5b50620002c56004803603810190620002bf919062001763565b62000f2a565b604051620002d69392919062001dcf565b60405180910390f35b348015620002ec57600080fd5b506200030b600480360381019062000305919062001763565b62000fe1565b005b3480156200031a57600080fd5b5062000339600480360381019062000333919062001763565b6200108c565b604051620003519a9998979695949392919062001e0c565b60405180910390f35b62000378600480360381019062000372919062001763565b620013dc565b005b3480156200038757600080fd5b50620003a66004803603810190620003a0919062001763565b620015dc565b604051620003b5919062001db2565b60405180910390f35b348015620003cb57600080fd5b50620003d66200160f565b604051620003e59190620017a6565b60405180910390f35b348015620003fb57600080fd5b506200041a600480360381019062000414919062001763565b62001615565b6040516200042a92919062001ed8565b60405180910390f35b3480156200044057600080fd5b506200045f600480360381019062000459919062001763565b620016d3565b6040516200046e919062001db2565b60405180910390f35b6000600260006003600085815260200190815260200160002060009054906101000a900473ffffffffffffffffffffffffffffffffffffffff1673ffffffffffffffffffffffffffffffffffffffff1673ffffffffffffffffffffffffffffffffffffffff168152602001908152602001600020600083815260200190815260200160002090503373ffffffffffffffffffffffffffffffffffffffff166003600084815260200190815260200160002060009054906101000a900473ffffffffffffffffffffffffffffffffffffffff1673ffffffffffffffffffffffffffffffffffffffff16146200056a57600080fd5b600060028111156200058157620005806200191a565b5b8160090160009054906101000a900460ff166002811115620005a857620005a76200191a565b5b14620005b357600080fd5b6000816008015403620005f65760028160090160006101000a81548160ff02191690836002811115620005eb57620005ea6200191a565b5b021790555062000627565b60018160090160006101000a81548160ff021916908360028111156200062157620006206200191a565b5b02179055505b5050565b600080600260006003600086815260200190815260200160002060009054906101000a900473ffffffffffffffffffffffffffffffffffffffff1673ffffffffffffffffffffffffffffffffffffffff1673ffffffffffffffffffffffffffffffffffffffff168152602001908152602001600020600084815260200190815260200160002090508060080154915050919050565b6001600082815260200190815260200160002060009054906101000a900473ffffffffffffffffffffffffffffffffffffffff1673ffffffffffffffffffffffffffffffffffffffff1663892a0e426040518163ffffffff1660e01b81526004016020604051808303816000875af115801562000741573d6000803e3d6000fd5b505050506040513d601f19601f8201168201806040525081019062000767919062001f36565b5050565b600260205281600052604060002060205280600052604060002060009150915050806000015490806001018054620007a39062001f97565b80601f0160208091040260200160405190810160405280929190818152602001828054620007d19062001f97565b8015620008225780601f10620007f65761010080835404028352916020019162000822565b820191906000526020600020905b8154815290600101906020018083116200080457829003601f168201915b505050505090806002018054620008399062001f97565b80601f0160208091040260200160405190810160405280929190818152602001828054620008679062001f97565b8015620008b85780601f106200088c57610100808354040283529160200191620008b8565b820191906000526020600020905b8154815290600101906020018083116200089a57829003601f168201915b505050505090806003018054620008cf9062001f97565b80601f0160208091040260200160405190810160405280929190818152602001828054620008fd9062001f97565b80156200094e5780601f1062000922576101008083540402835291602001916200094e565b820191906000526020600020905b8154815290600101906020018083116200093057829003601f168201915b505050505090806004018054620009659062001f97565b80601f0160208091040260200160405190810160405280929190818152602001828054620009939062001f97565b8015620009e45780601f10620009b857610100808354040283529160200191620009e4565b820191906000526020600020905b815481529060010190602001808311620009c657829003601f168201915b5050505050908060050154908060060160009054906101000a900473ffffffffffffffffffffffffffffffffffffffff16908060070154908060080154908060090160009054906101000a900460ff16908060090160019054906101000a900460ff1690508b565b600080600260006003600087815260200190815260200160002060009054906101000a900473ffffffffffffffffffffffffffffffffffffffff1673ffffffffffffffffffffffffffffffffffffffff1673ffffffffffffffffffffffffffffffffffffffff16815260200190815260200160002060008581526020019081526020016000209050600073ffffffffffffffffffffffffffffffffffffffff1681600a0160003373ffffffffffffffffffffffffffffffffffffffff1673ffffffffffffffffffffffffffffffffffffffff16815260200190815260200160002060000160009054906101000a900473ffffffffffffffffffffffffffffffffffffffff1673ffffffffffffffffffffffffffffffffffffffff161462000b7257600080fd5b806007015483111562000bcc57828160070181905550338160060160006101000a81548173ffffffffffffffffffffffffffffffffffffffff021916908373ffffffffffffffffffffffffffffffffffffffff1602179055505b60405180606001604052803373ffffffffffffffffffffffffffffffffffffffff1681526020018581526020018481525081600a0160003373ffffffffffffffffffffffffffffffffffffffff1673ffffffffffffffffffffffffffffffffffffffff16815260200190815260200160002060008201518160000160006101000a81548173ffffffffffffffffffffffffffffffffffffffff021916908373ffffffffffffffffffffffffffffffffffffffff1602179055506020820151816001015560408201518160020155905050600181600801600082825462000cb3919062001ffb565b925050819055507f87f5b2fe112bf269d30fb8ca9dc0bde0afd0cc39258e13fafd75fe794795bf0e33858560405162000cef9392919062002036565b60405180910390a1600191505092915050565b600160008082825462000d16919062001ffb565b925050819055506000600260003373ffffffffffffffffffffffffffffffffffffffff1673ffffffffffffffffffffffffffffffffffffffff168152602001908152602001600020600080548152602001908152602001600020905060005481600001819055508681600101908162000d90919062002245565b508581600201908162000da4919062002245565b508481600301908162000db8919062002245565b508381600401908162000dcc919062002245565b5082816005018190555060008160090160006101000a81548160ff0219169083600281111562000e015762000e006200191a565b5b021790555081600181111562000e1c5762000e1b6200191a565b5b8160090160016101000a81548160ff0219169083600181111562000e455762000e446200191a565b5b021790555033600360008054815260200190815260200160002060006101000a81548173ffffffffffffffffffffffffffffffffffffffff021916908373ffffffffffffffffffffffffffffffffffffffff1602179055507f300288586092b66ad7c24104ebade8bd6e712cd39b8ab965d671f857a6b1b56660005488888888888860405162000edc97969594939291906200232c565b60405180910390a150505050505050565b60006001600083815260200190815260200160002060009054906101000a900473ffffffffffffffffffffffffffffffffffffffff169050919050565b60008060006001600085815260200190815260200160002060009054906101000a900473ffffffffffffffffffffffffffffffffffffffff1673ffffffffffffffffffffffffffffffffffffffff1663f3d259046040518163ffffffff1660e01b8152600401606060405180830381865afa15801562000fae573d6000803e3d6000fd5b505050506040513d601f19601f8201168201806040525081019062000fd49190620023dc565b9250925092509193909250565b6001600082815260200190815260200160002060009054906101000a900473ffffffffffffffffffffffffffffffffffffffff1673ffffffffffffffffffffffffffffffffffffffff16634bd7d0816040518163ffffffff1660e01b81526004016020604051808303816000875af115801562001062573d6000803e3d6000fd5b505050506040513d601f19601f8201168201806040525081019062001088919062001f36565b5050565b600060608060608060008060008060008060026000600360008f815260200190815260200160002060009054906101000a900473ffffffffffffffffffffffffffffffffffffffff1673ffffffffffffffffffffffffffffffffffffffff1673ffffffffffffffffffffffffffffffffffffffff16815260200190815260200160002060008d8152602001908152602001600020905080600001548160010182600201836003018460040185600501548660090160009054906101000a900460ff168760090160019054906101000a900460ff1688600801548960070154888054620011789062001f97565b80601f0160208091040260200160405190810160405280929190818152602001828054620011a69062001f97565b8015620011f75780601f10620011cb57610100808354040283529160200191620011f7565b820191906000526020600020905b815481529060010190602001808311620011d957829003601f168201915b505050505098508780546200120c9062001f97565b80601f01602080910402602001604051908101604052809291908181526020018280546200123a9062001f97565b80156200128b5780601f106200125f576101008083540402835291602001916200128b565b820191906000526020600020905b8154815290600101906020018083116200126d57829003601f168201915b50505050509750868054620012a09062001f97565b80601f0160208091040260200160405190810160405280929190818152602001828054620012ce9062001f97565b80156200131f5780601f10620012f3576101008083540402835291602001916200131f565b820191906000526020600020905b8154815290600101906020018083116200130157829003601f168201915b50505050509650858054620013349062001f97565b80601f0160208091040260200160405190810160405280929190818152602001828054620013629062001f97565b8015620013b35780601f106200138757610100808354040283529160200191620013b3565b820191906000526020600020905b8154815290600101906020018083116200139557829003601f168201915b505050505095509a509a509a509a509a509a509a509a509a509a50509193959799509193959799565b6000600260006003600085815260200190815260200160002060009054906101000a900473ffffffffffffffffffffffffffffffffffffffff1673ffffffffffffffffffffffffffffffffffffffff1673ffffffffffffffffffffffffffffffffffffffff1681526020019081526020016000206000838152602001908152602001600020905060006003600084815260200190815260200160002060009054906101000a900473ffffffffffffffffffffffffffffffffffffffff1690503373ffffffffffffffffffffffffffffffffffffffff168260060160009054906101000a900473ffffffffffffffffffffffffffffffffffffffff1673ffffffffffffffffffffffffffffffffffffffff1614620014f857600080fd5b600160028111156200150f576200150e6200191a565b5b8260090160009054906101000a900460ff1660028111156200153657620015356200191a565b5b146200154157600080fd5b600034843384604051620015559062001706565b620015639392919062002438565b6040518091039082f090508015801562001581573d6000803e3d6000fd5b509050806001600086815260200190815260200160002060006101000a81548173ffffffffffffffffffffffffffffffffffffffff021916908373ffffffffffffffffffffffffffffffffffffffff16021790555050505050565b60036020528060005260406000206000915054906101000a900473ffffffffffffffffffffffffffffffffffffffff1681565b60005481565b6000806000600260006003600087815260200190815260200160002060009054906101000a900473ffffffffffffffffffffffffffffffffffffffff1673ffffffffffffffffffffffffffffffffffffffff1673ffffffffffffffffffffffffffffffffffffffff168152602001908152602001600020600085815260200190815260200160002090508060060160009054906101000a900473ffffffffffffffffffffffffffffffffffffffff1681600701549250925050915091565b60016020528060005260406000206000915054906101000a900473ffffffffffffffffffffffffffffffffffffffff1681565b6106c6806200247683390190565b6000604051905090565b600080fd5b600080fd5b6000819050919050565b6200173d8162001728565b81146200174957600080fd5b50565b6000813590506200175d8162001732565b92915050565b6000602082840312156200177c576200177b6200171e565b5b60006200178c848285016200174c565b91505092915050565b620017a08162001728565b82525050565b6000602082019050620017bd600083018462001795565b92915050565b600073ffffffffffffffffffffffffffffffffffffffff82169050919050565b6000620017f082620017c3565b9050919050565b6200180281620017e3565b81146200180e57600080fd5b50565b6000813590506200182281620017f7565b92915050565b600080604083850312156200184257620018416200171e565b5b6000620018528582860162001811565b925050602062001865858286016200174c565b9150509250929050565b600081519050919050565b600082825260208201905092915050565b60005b83811015620018ab5780820151818401526020810190506200188e565b60008484015250505050565b6000601f19601f8301169050919050565b6000620018d5826200186f565b620018e181856200187a565b9350620018f38185602086016200188b565b620018fe81620018b7565b840191505092915050565b6200191481620017e3565b82525050565b7f4e487b7100000000000000000000000000000000000000000000000000000000600052602160045260246000fd5b600381106200195d576200195c6200191a565b5b50565b6000819050620019708262001949565b919050565b6000620019828262001960565b9050919050565b620019948162001975565b82525050565b60028110620019ae57620019ad6200191a565b5b50565b6000819050620019c1826200199a565b919050565b6000620019d382620019b1565b9050919050565b620019e581620019c6565b82525050565b60006101608201905062001a03600083018e62001795565b818103602083015262001a17818d620018c8565b9050818103604083015262001a2d818c620018c8565b9050818103606083015262001a43818b620018c8565b9050818103608083015262001a59818a620018c8565b905062001a6a60a083018962001795565b62001a7960c083018862001909565b62001a8860e083018762001795565b62001a9861010083018662001795565b62001aa861012083018562001989565b62001ab8610140830184620019da565b9c9b505050505050505050505050565b6000806040838503121562001ae25762001ae16200171e565b5b600062001af2858286016200174c565b925050602062001b05858286016200174c565b9150509250929050565b60008115159050919050565b62001b268162001b0f565b82525050565b600060208201905062001b43600083018462001b1b565b92915050565b600080fd5b600080fd5b7f4e487b7100000000000000000000000000000000000000000000000000000000600052604160045260246000fd5b62001b8d82620018b7565b810181811067ffffffffffffffff8211171562001baf5762001bae62001b53565b5b80604052505050565b600062001bc462001714565b905062001bd2828262001b82565b919050565b600067ffffffffffffffff82111562001bf55762001bf462001b53565b5b62001c0082620018b7565b9050602081019050919050565b82818337600083830152505050565b600062001c3362001c2d8462001bd7565b62001bb8565b90508281526020810184848401111562001c525762001c5162001b4e565b5b62001c5f84828562001c0d565b509392505050565b600082601f83011262001c7f5762001c7e62001b49565b5b813562001c9184826020860162001c1c565b91505092915050565b60008060008060008060c0878903121562001cba5762001cb96200171e565b5b600087013567ffffffffffffffff81111562001cdb5762001cda62001723565b5b62001ce989828a0162001c67565b965050602087013567ffffffffffffffff81111562001d0d5762001d0c62001723565b5b62001d1b89828a0162001c67565b955050604087013567ffffffffffffffff81111562001d3f5762001d3e62001723565b5b62001d4d89828a0162001c67565b945050606087013567ffffffffffffffff81111562001d715762001d7062001723565b5b62001d7f89828a0162001c67565b935050608062001d9289828a016200174c565b92505060a062001da589828a016200174c565b9150509295509295509295565b600060208201905062001dc9600083018462001909565b92915050565b600060608201905062001de6600083018662001909565b62001df5602083018562001909565b62001e04604083018462001b1b565b949350505050565b60006101408201905062001e24600083018d62001795565b818103602083015262001e38818c620018c8565b9050818103604083015262001e4e818b620018c8565b9050818103606083015262001e64818a620018c8565b9050818103608083015262001e7a8189620018c8565b905062001e8b60a083018862001795565b62001e9a60c083018762001989565b62001ea960e0830186620019da565b62001eb961010083018562001795565b62001ec961012083018462001795565b9b9a5050505050505050505050565b600060408201905062001eef600083018562001909565b62001efe602083018462001795565b9392505050565b62001f108162001b0f565b811462001f1c57600080fd5b50565b60008151905062001f308162001f05565b92915050565b60006020828403121562001f4f5762001f4e6200171e565b5b600062001f5f8482850162001f1f565b91505092915050565b7f4e487b7100000000000000000000000000000000000000000000000000000000600052602260045260246000fd5b6000600282049050600182168062001fb057607f821691505b60208210810362001fc65762001fc562001f68565b5b50919050565b7f4e487b7100000000000000000000000000000000000000000000000000000000600052601160045260246000fd5b6000620020088262001728565b9150620020158362001728565b925082820190508082111562002030576200202f62001fcc565b5b92915050565b60006060820190506200204d600083018662001909565b6200205c602083018562001795565b6200206b604083018462001795565b949350505050565b60008190508160005260206000209050919050565b60006020601f8301049050919050565b600082821b905092915050565b600060088302620020d77fffffffffffffffffffffffffffffffffffffffffffffffffffffffffffffffff8262002098565b620020e3868362002098565b95508019841693508086168417925050509392505050565b6000819050919050565b600062002126620021206200211a8462001728565b620020fb565b62001728565b9050919050565b6000819050919050565b620021428362002105565b6200215a62002151826200212d565b848454620020a5565b825550505050565b600090565b6200217162002162565b6200217e81848462002137565b505050565b5b81811015620021a6576200219a60008262002167565b60018101905062002184565b5050565b601f821115620021f557620021bf8162002073565b620021ca8462002088565b81016020851015620021da578190505b620021f2620021e98562002088565b83018262002183565b50505b505050565b600082821c905092915050565b60006200221a60001984600802620021fa565b1980831691505092915050565b600062002235838362002207565b9150826002028217905092915050565b62002250826200186f565b67ffffffffffffffff8111156200226c576200226b62001b53565b5b62002278825462001f97565b62002285828285620021aa565b600060209050601f831160018114620022bd5760008415620022a8578287015190505b620022b4858262002227565b86555062002324565b601f198416620022cd8662002073565b60005b82811015620022f757848901518255600182019150602085019450602081019050620022d0565b8683101562002317578489015162002313601f89168262002207565b8355505b6001600288020188555050505b505050505050565b600060e08201905062002343600083018a62001795565b8181036020830152620023578189620018c8565b905081810360408301526200236d8188620018c8565b90508181036060830152620023838187620018c8565b90508181036080830152620023998186620018c8565b9050620023aa60a083018562001795565b620023b960c083018462001795565b98975050505050505050565b600081519050620023d681620017f7565b92915050565b600080600060608486031215620023f857620023f76200171e565b5b60006200240886828701620023c5565b93505060206200241b86828701620023c5565b92505060406200242e8682870162001f1f565b9150509250925092565b60006060820190506200244f600083018662001795565b6200245e602083018562001909565b6200246d604083018462001909565b94935050505056fe60806040526040516106c63803806106c683398181016040528101906100259190610171565b8260008190555081600160006101000a81548173ffffffffffffffffffffffffffffffffffffffff021916908373ffffffffffffffffffffffffffffffffffffffff16021790555080600260006101000a81548173ffffffffffffffffffffffffffffffffffffffff021916908373ffffffffffffffffffffffffffffffffffffffff160217905550346003819055506000600460006101000a81548160ff0219169083151502179055505050506101c4565b600080fd5b6000819050919050565b6100f0816100dd565b81146100fb57600080fd5b50565b60008151905061010d816100e7565b92915050565b600073ffffffffffffffffffffffffffffffffffffffff82169050919050565b600061013e82610113565b9050919050565b61014e81610133565b811461015957600080fd5b50565b60008151905061016b81610145565b92915050565b60008060006060848603121561018a576101896100d8565b5b6000610198868287016100fe565b93505060206101a98682870161015c565b92505060406101ba8682870161015c565b9150509250925092565b6104f3806101d36000396000f3fe608060405234801561001057600080fd5b50600436106100885760003560e01c8063aa8c217c1161005b578063aa8c217c14610105578063c5ce391114610123578063d1a52e3014610141578063f3d259041461015f57610088565b806308551a531461008d5780634bd7d081146100ab5780637150d8ae146100c9578063892a0e42146100e7575b600080fd5b61009561017f565b6040516100a29190610401565b60405180910390f35b6100b36101a5565b6040516100c09190610437565b60405180910390f35b6100d161025d565b6040516100de9190610401565b60405180910390f35b6100ef610283565b6040516100fc9190610437565b60405180910390f35b61010d61033b565b60405161011a919061046b565b60405180910390f35b61012b610341565b604051610138919061046b565b60405180910390f35b610149610347565b6040516101569190610437565b60405180910390f35b61016761035a565b60405161017693929190610486565b60405180910390f35b600260009054906101000a900473ffffffffffffffffffffffffffffffffffffffff1681565b6000600460009054906101000a900460ff16156101c157600080fd5b6003544710156101d057600080fd5b600160009054906101000a900473ffffffffffffffffffffffffffffffffffffffff1673ffffffffffffffffffffffffffffffffffffffff166108fc6003549081150290604051600060405180830381858888f1935050505015801561023a573d6000803e3d6000fd5b506001600460006101000a81548160ff0219169083151502179055506001905090565b600160009054906101000a900473ffffffffffffffffffffffffffffffffffffffff1681565b6000600460009054906101000a900460ff161561029f57600080fd5b6003544710156102ae57600080fd5b600260009054906101000a900473ffffffffffffffffffffffffffffffffffffffff1673ffffffffffffffffffffffffffffffffffffffff166108fc6003549081150290604051600060405180830381858888f19350505050158015610318573d6000803e3d6000fd5b506001600460006101000a81548160ff0219169083151502179055506001905090565b60035481565b60005481565b600460009054906101000a900460ff1681565b6000806000600160009054906101000a900473ffffffffffffffffffffffffffffffffffffffff16600260009054906101000a900473ffffffffffffffffffffffffffffffffffffffff16600460009054906101000a900460ff16925092509250909192565b600073ffffffffffffffffffffffffffffffffffffffff82169050919050565b60006103eb826103c0565b9050919050565b6103fb816103e0565b82525050565b600060208201905061041660008301846103f2565b92915050565b60008115159050919050565b6104318161041c565b82525050565b600060208201905061044c6000830184610428565b92915050565b6000819050919050565b61046581610452565b82525050565b6000602082019050610480600083018461045c565b92915050565b600060608201905061049b60008301866103f2565b6104a860208301856103f2565b6104b56040830184610428565b94935050505056fea26469706673582212200a8daa8205a04349e2bbd77e5649b69f0b4f6eced08f4c50535268470895535664736f6c63430008130033a2646970667358221220b219e4c1fae35d975a97fa53784e6fd62cb4fd0b2a5b0cdeec4cc3df13ea0caa64736f6c63430008130033",
  "linkReferences": {},
  "deployedLinkReferences": {}
}